{
  "contractName": "Doctor",
  "abi": [
    {
      "constant": false,
      "inputs": [
        {
          "name": "_onOff",
          "type": "bool"
        }
      ],
      "name": "controlSwitch",
      "outputs": [],
      "payable": false,
      "stateMutability": "nonpayable",
      "type": "function"
    },
    {
      "constant": true,
      "inputs": [],
      "name": "preDoctor",
      "outputs": [
        {
          "name": "",
          "type": "address"
        }
      ],
      "payable": false,
      "stateMutability": "view",
      "type": "function"
    },
    {
      "constant": true,
      "inputs": [],
      "name": "doctor",
      "outputs": [
        {
          "name": "",
          "type": "address"
        }
      ],
      "payable": false,
      "stateMutability": "view",
      "type": "function"
    },
    {
      "constant": true,
      "inputs": [],
      "name": "owner",
      "outputs": [
        {
          "name": "",
          "type": "address"
        }
      ],
      "payable": false,
      "stateMutability": "view",
      "type": "function"
    },
    {
      "constant": false,
      "inputs": [
        {
          "name": "_newOwner",
          "type": "address"
        }
      ],
      "name": "changeOwner",
      "outputs": [],
      "payable": false,
      "stateMutability": "nonpayable",
      "type": "function"
    },
    {
      "constant": true,
      "inputs": [],
      "name": "doctorLicense",
      "outputs": [
        {
          "name": "",
          "type": "bool"
        }
      ],
      "payable": false,
      "stateMutability": "view",
      "type": "function"
    },
    {
      "constant": false,
      "inputs": [
        {
          "name": "_deleteOwner",
          "type": "address"
        }
      ],
      "name": "deleteOwner",
      "outputs": [],
      "payable": false,
      "stateMutability": "nonpayable",
      "type": "function"
    },
    {
      "constant": true,
      "inputs": [],
      "name": "running",
      "outputs": [
        {
          "name": "",
          "type": "bool"
        }
      ],
      "payable": false,
      "stateMutability": "view",
      "type": "function"
    },
    {
      "inputs": [],
      "payable": false,
      "stateMutability": "nonpayable",
      "type": "constructor"
    },
    {
      "anonymous": false,
      "inputs": [
        {
          "indexed": false,
          "name": "doctorAccount",
          "type": "address"
        }
      ],
      "name": "LogEnrollDoctor",
      "type": "event"
    },
    {
      "anonymous": false,
      "inputs": [
        {
          "indexed": false,
          "name": "delDoctorAccount",
          "type": "address"
        }
      ],
      "name": "LogDeleteDoctor",
      "type": "event"
    },
    {
      "anonymous": false,
      "inputs": [
        {
          "indexed": false,
          "name": "switchStatus",
          "type": "bool"
        }
      ],
      "name": "LogSwitchStatus",
      "type": "event"
    },
    {
      "anonymous": false,
      "inputs": [
        {
          "indexed": false,
          "name": "oldOwner",
          "type": "address"
        },
        {
          "indexed": false,
          "name": "newOwner",
          "type": "address"
        }
      ],
      "name": "LogNewOwner",
      "type": "event"
    },
    {
      "anonymous": false,
      "inputs": [
        {
          "indexed": false,
          "name": "deleteOwner",
          "type": "address"
        }
      ],
      "name": "LogDeleteOwner",
      "type": "event"
    },
    {
      "constant": false,
      "inputs": [
        {
          "name": "_license",
          "type": "bool"
        }
      ],
      "name": "enrollDoctor",
      "outputs": [],
      "payable": false,
      "stateMutability": "nonpayable",
      "type": "function"
    },
    {
      "constant": false,
      "inputs": [
        {
          "name": "delDoctor",
          "type": "address"
        }
      ],
      "name": "deleteDoctor",
      "outputs": [],
      "payable": false,
      "stateMutability": "nonpayable",
      "type": "function"
    }
  ],
  "bytecode": "0x6060604052341561000f57600080fd5b336000806101000a81548173ffffffffffffffffffffffffffffffffffffffff021916908373ffffffffffffffffffffffffffffffffffffffff1602179055506001600060146101000a81548160ff0219169083151502179055506000600260146101000a81548160ff02191690831515021790555033600260006101000a81548173ffffffffffffffffffffffffffffffffffffffff021916908373ffffffffffffffffffffffffffffffffffffffff160217905550610a16806100d56000396000f3006060604052600436106100a4576000357c0100000000000000000000000000000000000000000000000000000000900463ffffffff1680631b2093d1146100a95780632948ab3c146100ce5780633b1693b6146101235780637ea7118c1461015c5780638da5cb5b146101b1578063a6f9dae114610206578063b81b86391461023f578063cd5c4c701461026c578063d725b5ed146102a5578063d85bd526146102ca575b600080fd5b34156100b457600080fd5b6100cc600480803515159060200190919050506102f7565b005b34156100d957600080fd5b6100e16103b9565b604051808273ffffffffffffffffffffffffffffffffffffffff1673ffffffffffffffffffffffffffffffffffffffff16815260200191505060405180910390f35b341561012e57600080fd5b61015a600480803573ffffffffffffffffffffffffffffffffffffffff169060200190919050506103df565b005b341561016757600080fd5b61016f61053e565b604051808273ffffffffffffffffffffffffffffffffffffffff1673ffffffffffffffffffffffffffffffffffffffff16815260200191505060405180910390f35b34156101bc57600080fd5b6101c4610564565b604051808273ffffffffffffffffffffffffffffffffffffffff1673ffffffffffffffffffffffffffffffffffffffff16815260200191505060405180910390f35b341561021157600080fd5b61023d600480803573ffffffffffffffffffffffffffffffffffffffff16906020019091905050610589565b005b341561024a57600080fd5b610252610705565b604051808215151515815260200191505060405180910390f35b341561027757600080fd5b6102a3600480803573ffffffffffffffffffffffffffffffffffffffff16906020019091905050610718565b005b34156102b057600080fd5b6102c86004808035151590602001909190505061081a565b005b34156102d557600080fd5b6102dd6109d7565b604051808215151515815260200191505060405180910390f35b3373ffffffffffffffffffffffffffffffffffffffff166000809054906101000a900473ffffffffffffffffffffffffffffffffffffffff1673ffffffffffffffffffffffffffffffffffffffff1614151561035257600080fd5b80600060146101000a81548160ff0219169083151502179055507febc7dab65fbc6c64ef4127ee30fe3644ecfa7f2fad7cfd9d376324f462314354600060149054906101000a900460ff16604051808215151515815260200191505060405180910390a150565b600260009054906101000a900473ffffffffffffffffffffffffffffffffffffffff1681565b3373ffffffffffffffffffffffffffffffffffffffff166000809054906101000a900473ffffffffffffffffffffffffffffffffffffffff1673ffffffffffffffffffffffffffffffffffffffff1614151561043a57600080fd5b600160009054906101000a900473ffffffffffffffffffffffffffffffffffffffff1673ffffffffffffffffffffffffffffffffffffffff163373ffffffffffffffffffffffffffffffffffffffff1614151561049657600080fd5b7fbfb593823cfef992c81bf293641c91e63e7bde8b679077b6bed11e1a8bf7895581604051808273ffffffffffffffffffffffffffffffffffffffff1673ffffffffffffffffffffffffffffffffffffffff16815260200191505060405180910390a16000600160006101000a81548173ffffffffffffffffffffffffffffffffffffffff021916908373ffffffffffffffffffffffffffffffffffffffff16021790555050565b600160009054906101000a900473ffffffffffffffffffffffffffffffffffffffff1681565b6000809054906101000a900473ffffffffffffffffffffffffffffffffffffffff1681565b3373ffffffffffffffffffffffffffffffffffffffff166000809054906101000a900473ffffffffffffffffffffffffffffffffffffffff1673ffffffffffffffffffffffffffffffffffffffff161415156105e457600080fd5b60008173ffffffffffffffffffffffffffffffffffffffff161415151561060a57600080fd5b7f1f8d7d25344642d919d55999e4664aa452a5f424bc0936ceb9c2b300db7dcbd96000809054906101000a900473ffffffffffffffffffffffffffffffffffffffff1682604051808373ffffffffffffffffffffffffffffffffffffffff1673ffffffffffffffffffffffffffffffffffffffff1681526020018273ffffffffffffffffffffffffffffffffffffffff1673ffffffffffffffffffffffffffffffffffffffff1681526020019250505060405180910390a1806000806101000a81548173ffffffffffffffffffffffffffffffffffffffff021916908373ffffffffffffffffffffffffffffffffffffffff16021790555050565b600260149054906101000a900460ff1681565b3373ffffffffffffffffffffffffffffffffffffffff166000809054906101000a900473ffffffffffffffffffffffffffffffffffffffff1673ffffffffffffffffffffffffffffffffffffffff1614151561077357600080fd5b7fa5828ad497e16d29d45c7b08a089f0be4b9eb49a783a175728b68d9838f8d78381604051808273ffffffffffffffffffffffffffffffffffffffff1673ffffffffffffffffffffffffffffffffffffffff16815260200191505060405180910390a160008060006101000a81548173ffffffffffffffffffffffffffffffffffffffff021916908373ffffffffffffffffffffffffffffffffffffffff16021790555050565b3373ffffffffffffffffffffffffffffffffffffffff166000809054906101000a900473ffffffffffffffffffffffffffffffffffffffff1673ffffffffffffffffffffffffffffffffffffffff1614151561087557600080fd5b80600260146101000a81548160ff021916908315150217905550600260149054906101000a900460ff1615156108aa57600080fd5b7f6cc6ea9b92f4e2871fc71d75fd6f4b0bcfc1f2e94aacea2fca82d37ecd6a42e1600260009054906101000a900473ffffffffffffffffffffffffffffffffffffffff16604051808273ffffffffffffffffffffffffffffffffffffffff1673ffffffffffffffffffffffffffffffffffffffff16815260200191505060405180910390a1600260009054906101000a900473ffffffffffffffffffffffffffffffffffffffff16600160006101000a81548173ffffffffffffffffffffffffffffffffffffffff021916908373ffffffffffffffffffffffffffffffffffffffff1602179055506000600260006101000a81548173ffffffffffffffffffffffffffffffffffffffff021916908373ffffffffffffffffffffffffffffffffffffffff16021790555050565b600060149054906101000a900460ff16815600a165627a7a723058208de94ca20665d3ea57794bb93dfac5c4d09ff17b2b0204197f16e776e5cc38d10029",
  "source": "pragma solidity ^0.4.20;\n\nimport \"./Stoppable.sol\";\n\n/**\n *Base for contract that work with the abstraction of medical.\n */\n\ncontract Doctor is Stoppable {\n\n    event LogEnrollDoctor(address doctorAccount);\n    event LogDeleteDoctor(address delDoctorAccount);\n\n    address public doctor;\n    address public preDoctor;\n    bool public doctorLicense;\n\n    modifier onlyDoctor{\n        require(msg.sender == doctor);\n        _;\n    }\n\n    function Doctor() public {\n        doctorLicense = false;\n        preDoctor = msg.sender;\n    }\n\n    function enrollDoctor(bool _license) public onlyOwner {\n        doctorLicense = _license;\n        require(doctorLicense);\n        emit LogEnrollDoctor( preDoctor);\n\n        doctor = preDoctor;\n        preDoctor = 0x0;\n    }\n\n    function deleteDoctor(address delDoctor) public onlyOwner onlyDoctor {\n        emit LogDeleteDoctor(delDoctor);\n\n        doctor = 0x0;\n    }\n\n}\n",
  "sourcePath": "/Users/sangphilkim/Smart/Pedomu/contracts/Doctor.sol",
  "compiler": {
    "name": "solc",
    "version": "0.4.21+commit.dfe3193c.Emscripten.clang"
  },
  "schemaVersion": "2.0.0",
  "updatedAt": "2018-04-20T07:45:10.606Z"
}