{
  "contractName": "Medical",
  "abi": [
    {
      "constant": true,
      "inputs": [],
      "name": "medicalChart",
      "outputs": [
        {
          "name": "",
          "type": "uint256"
        }
      ],
      "payable": false,
      "stateMutability": "view",
      "type": "function"
    },
    {
      "inputs": [],
      "payable": false,
      "stateMutability": "nonpayable",
      "type": "constructor"
    }
  ],
  "bytecode": "0x60606040523415600e57600080fd5b609c8061001c6000396000f300606060405260043610603f576000357c0100000000000000000000000000000000000000000000000000000000900463ffffffff16806326626441146044575b600080fd5b3415604e57600080fd5b6054606a565b6040518082815260200191505060405180910390f35b600054815600a165627a7a72305820551d11d838d1c23fc4735debce89908e41f8f3bb4866d92f303fe299c747c8420029",
  "source": "pragma solidity ^0.4.20;\n\n/**\n *Base for contract that work about medical data\n */\n\ncontract Medical {\n\n    uint public medicalChart;\n    //medical info_two digit?\n    //first digit is category(1*: visit list, 2*: surgery list, ...)\n    //second digit is medical details in category (11: ultrasonic wave, 12: cheak blood, ...)\n\n    function Medical() public {\n\n    }\n}\n",
  "sourcePath": "/Users/sangphilkim/Smart/Pedomu/contracts/Medical.sol",
  "compiler": {
    "name": "solc",
    "version": "0.4.21+commit.dfe3193c.Emscripten.clang"
  },
  "schemaVersion": "2.0.0",
  "updatedAt": "2018-04-20T07:45:10.607Z"
}