{
  "contractName": "Petowner",
  "abi": [
    {
      "constant": true,
      "inputs": [],
      "name": "petOwnerPhone",
      "outputs": [
        {
          "name": "",
          "type": "string"
        }
      ],
      "payable": false,
      "stateMutability": "view",
      "type": "function"
    },
    {
      "constant": true,
      "inputs": [],
      "name": "petOwner",
      "outputs": [
        {
          "name": "",
          "type": "address"
        }
      ],
      "payable": false,
      "stateMutability": "view",
      "type": "function"
    },
    {
      "constant": true,
      "inputs": [],
      "name": "petOwnerName",
      "outputs": [
        {
          "name": "",
          "type": "string"
        }
      ],
      "payable": false,
      "stateMutability": "view",
      "type": "function"
    },
    {
      "constant": true,
      "inputs": [],
      "name": "petOwnerEmail",
      "outputs": [
        {
          "name": "",
          "type": "string"
        }
      ],
      "payable": false,
      "stateMutability": "view",
      "type": "function"
    },
    {
      "inputs": [
        {
          "name": "_petOwnerName",
          "type": "string"
        },
        {
          "name": "_petOwnerEmail",
          "type": "string"
        },
        {
          "name": "_petOwnerPhone",
          "type": "string"
        }
      ],
      "payable": false,
      "stateMutability": "nonpayable",
      "type": "constructor"
    },
    {
      "anonymous": false,
      "inputs": [
        {
          "indexed": false,
          "name": "oldOwnerName",
          "type": "string"
        },
        {
          "indexed": false,
          "name": "oldOwner",
          "type": "address"
        },
        {
          "indexed": false,
          "name": "newOwnerName",
          "type": "string"
        },
        {
          "indexed": false,
          "name": "newOwner",
          "type": "address"
        }
      ],
      "name": "LogNewPetOwner",
      "type": "event"
    },
    {
      "anonymous": false,
      "inputs": [
        {
          "indexed": false,
          "name": "killOwnerName",
          "type": "string"
        },
        {
          "indexed": false,
          "name": "killOwner",
          "type": "address"
        }
      ],
      "name": "LogDeletePetOwner",
      "type": "event"
    },
    {
      "constant": false,
      "inputs": [
        {
          "name": "_newPetOwner",
          "type": "address"
        },
        {
          "name": "_newPetOwnerName",
          "type": "string"
        },
        {
          "name": "_newPetOwnerEmail",
          "type": "string"
        },
        {
          "name": "_newPetOwnerPhone",
          "type": "string"
        }
      ],
      "name": "changePetOwner",
      "outputs": [],
      "payable": false,
      "stateMutability": "nonpayable",
      "type": "function"
    },
    {
      "constant": false,
      "inputs": [
        {
          "name": "_deletePetOwner",
          "type": "address"
        }
      ],
      "name": "deleteOwner",
      "outputs": [],
      "payable": false,
      "stateMutability": "nonpayable",
      "type": "function"
    }
  ],
  "bytecode": "0x6060604052341561000f57600080fd5b604051610d13380380610d1383398101604052808051820191906020018051820191906020018051820191905050336000806101000a81548173ffffffffffffffffffffffffffffffffffffffff021916908373ffffffffffffffffffffffffffffffffffffffff16021790555082600190805190602001906100939291906100ca565b5081600290805190602001906100aa9291906100ca565b5080600390805190602001906100c19291906100ca565b5050505061016f565b828054600181600116156101000203166002900490600052602060002090601f016020900481019282601f1061010b57805160ff1916838001178555610139565b82800160010185558215610139579182015b8281111561013857825182559160200191906001019061011d565b5b509050610146919061014a565b5090565b61016c91905b80821115610168576000816000905550600101610150565b5090565b90565b610b958061017e6000396000f300606060405260043610610078576000357c0100000000000000000000000000000000000000000000000000000000900463ffffffff168063134cb7251461007d578063be4681811461010b578063cd5c4c7014610160578063cf4f136314610199578063d0ac424314610227578063ef993b9e14610329575b600080fd5b341561008857600080fd5b6100906103b7565b6040518080602001828103825283818151815260200191508051906020019080838360005b838110156100d05780820151818401526020810190506100b5565b50505050905090810190601f1680156100fd5780820380516001836020036101000a031916815260200191505b509250505060405180910390f35b341561011657600080fd5b61011e610455565b604051808273ffffffffffffffffffffffffffffffffffffffff1673ffffffffffffffffffffffffffffffffffffffff16815260200191505060405180910390f35b341561016b57600080fd5b610197600480803573ffffffffffffffffffffffffffffffffffffffff1690602001909190505061047a565b005b34156101a457600080fd5b6101ac610684565b6040518080602001828103825283818151815260200191508051906020019080838360005b838110156101ec5780820151818401526020810190506101d1565b50505050905090810190601f1680156102195780820380516001836020036101000a031916815260200191505b509250505060405180910390f35b341561023257600080fd5b610327600480803573ffffffffffffffffffffffffffffffffffffffff1690602001909190803590602001908201803590602001908080601f0160208091040260200160405190810160405280939291908181526020018383808284378201915050505050509190803590602001908201803590602001908080601f0160208091040260200160405190810160405280939291908181526020018383808284378201915050505050509190803590602001908201803590602001908080601f01602080910402602001604051908101604052809392919081815260200183838082843782019150505050505091905050610722565b005b341561033457600080fd5b61033c6109de565b6040518080602001828103825283818151815260200191508051906020019080838360005b8381101561037c578082015181840152602081019050610361565b50505050905090810190601f1680156103a95780820380516001836020036101000a031916815260200191505b509250505060405180910390f35b60038054600181600116156101000203166002900480601f01602080910402602001604051908101604052809291908181526020018280546001816001161561010002031660029004801561044d5780601f106104225761010080835404028352916020019161044d565b820191906000526020600020905b81548152906001019060200180831161043057829003601f168201915b505050505081565b6000809054906101000a900473ffffffffffffffffffffffffffffffffffffffff1681565b3373ffffffffffffffffffffffffffffffffffffffff166000809054906101000a900473ffffffffffffffffffffffffffffffffffffffff1673ffffffffffffffffffffffffffffffffffffffff161415156104d557600080fd5b3373ffffffffffffffffffffffffffffffffffffffff168173ffffffffffffffffffffffffffffffffffffffff1614151561050f57600080fd5b7fec897fd6899ba95d90b254f4c7cb20fdee06de1fb2bce7c8d37841f8faac578e60018260405180806020018373ffffffffffffffffffffffffffffffffffffffff1673ffffffffffffffffffffffffffffffffffffffff1681526020018281038252848181546001816001161561010002031660029004815260200191508054600181600116156101000203166002900480156105ee5780601f106105c3576101008083540402835291602001916105ee565b820191906000526020600020905b8154815290600101906020018083116105d157829003601f168201915b5050935050505060405180910390a160008060006101000a81548173ffffffffffffffffffffffffffffffffffffffff021916908373ffffffffffffffffffffffffffffffffffffffff1602179055506001600061064c9190610a7c565b6002600061065a9190610a7c565b602060405190810160405280600081525060039080519060200190610680929190610ac4565b5050565b60018054600181600116156101000203166002900480601f01602080910402602001604051908101604052809291908181526020018280546001816001161561010002031660029004801561071a5780601f106106ef5761010080835404028352916020019161071a565b820191906000526020600020905b8154815290600101906020018083116106fd57829003601f168201915b505050505081565b3373ffffffffffffffffffffffffffffffffffffffff166000809054906101000a900473ffffffffffffffffffffffffffffffffffffffff1673ffffffffffffffffffffffffffffffffffffffff1614151561077d57600080fd5b60008473ffffffffffffffffffffffffffffffffffffffff16141515156107a357600080fd5b7f82366d28e8133c6a9f4f939fd39a7148cba93b07432563387688f2b466ca09d660016000809054906101000a900473ffffffffffffffffffffffffffffffffffffffff16858760405180806020018573ffffffffffffffffffffffffffffffffffffffff1673ffffffffffffffffffffffffffffffffffffffff168152602001806020018473ffffffffffffffffffffffffffffffffffffffff1673ffffffffffffffffffffffffffffffffffffffff1681526020018381038352878181546001816001161561010002031660029004815260200191508054600181600116156101000203166002900480156108db5780601f106108b0576101008083540402835291602001916108db565b820191906000526020600020905b8154815290600101906020018083116108be57829003601f168201915b5050838103825285818151815260200191508051906020019080838360005b838110156109155780820151818401526020810190506108fa565b50505050905090810190601f1680156109425780820380516001836020036101000a031916815260200191505b50965050505050505060405180910390a1836000806101000a81548173ffffffffffffffffffffffffffffffffffffffff021916908373ffffffffffffffffffffffffffffffffffffffff16021790555082600190805190602001906109a9929190610ac4565b5081600290805190602001906109c0929190610ac4565b5080600390805190602001906109d7929190610ac4565b5050505050565b60028054600181600116156101000203166002900480601f016020809104026020016040519081016040528092919081815260200182805460018160011615610100020316600290048015610a745780601f10610a4957610100808354040283529160200191610a74565b820191906000526020600020905b815481529060010190602001808311610a5757829003601f168201915b505050505081565b50805460018160011615610100020316600290046000825580601f10610aa25750610ac1565b601f016020900490600052602060002090810190610ac09190610b44565b5b50565b828054600181600116156101000203166002900490600052602060002090601f016020900481019282601f10610b0557805160ff1916838001178555610b33565b82800160010185558215610b33579182015b82811115610b32578251825591602001919060010190610b17565b5b509050610b409190610b44565b5090565b610b6691905b80821115610b62576000816000905550600101610b4a565b5090565b905600a165627a7a7230582066ff0f09ed0df62a122959a355fe6e5bf9ddd27d855568a9201204a5ecc3c3f80029",
  "source": "pragma solidity ^0.4.20;\n\n/**\n *Base for contracts that specify access rules to pet_owner contract owners.\n */\n\ncontract Petowner {\n\n    event LogNewPetOwner(string oldOwnerName, address oldOwner, string newOwnerName, address newOwner);\n    event LogDeletePetOwner(string killOwnerName, address killOwner);\n\n    address public petOwner;\n    string public petOwnerName;\n    string public petOwnerEmail;\n    string public petOwnerPhone;\n\n    modifier onlyPetOwner {\n        require(petOwner == msg.sender);\n        _;\n    }\n\n    function Petowner(string _petOwnerName, string _petOwnerEmail, string _petOwnerPhone) public {\n        petOwner = msg.sender;\n        petOwnerName = _petOwnerName;\n        petOwnerEmail = _petOwnerEmail;\n        petOwnerPhone = _petOwnerPhone;\n    }\n\n    function changePetOwner(address _newPetOwner, string _newPetOwnerName, string _newPetOwnerEmail, string _newPetOwnerPhone) public onlyPetOwner {\n        require(_newPetOwner != 0);\n        emit LogNewPetOwner(petOwnerName, petOwner, _newPetOwnerName, _newPetOwner);\n\n        petOwner = _newPetOwner;\n        petOwnerName = _newPetOwnerName;\n        petOwnerEmail = _newPetOwnerEmail;\n        petOwnerPhone = _newPetOwnerPhone;\n    }\n\n    function deleteOwner(address _deletePetOwner) public onlyPetOwner {\n        require(_deletePetOwner == msg.sender);\n        emit LogDeletePetOwner(petOwnerName, _deletePetOwner);\n\n        petOwner = 0x0;\n        delete petOwnerName;\n        delete petOwnerEmail;\n        petOwnerPhone = \"\"; //which is more efficient?\n    }\n\n    // function ownerInfo(string _ownerName) public view returns (address _infoAddress, string _infoEmail, string _infoPhone){\n    //     require(ownerName == _ownerName);\n    //     return (owner, ownerEmail, ownerPhone);\n    // }\n\n}\n",
  "sourcePath": "/Users/sangphilkim/Smart/Pedomu/contracts/Petowner.sol",
  "compiler": {
    "name": "solc",
    "version": "0.4.21+commit.dfe3193c.Emscripten.clang"
  },
  "schemaVersion": "2.0.0",
  "updatedAt": "2018-04-20T07:45:10.608Z"
}