{
  "contractName": "Stoppable",
  "abi": [
    {
      "constant": true,
      "inputs": [],
      "name": "owner",
      "outputs": [
        {
          "name": "",
          "type": "address"
        }
      ],
      "payable": false,
      "stateMutability": "view",
      "type": "function"
    },
    {
      "constant": false,
      "inputs": [
        {
          "name": "_newOwner",
          "type": "address"
        }
      ],
      "name": "changeOwner",
      "outputs": [],
      "payable": false,
      "stateMutability": "nonpayable",
      "type": "function"
    },
    {
      "constant": false,
      "inputs": [
        {
          "name": "_deleteOwner",
          "type": "address"
        }
      ],
      "name": "deleteOwner",
      "outputs": [],
      "payable": false,
      "stateMutability": "nonpayable",
      "type": "function"
    },
    {
      "constant": true,
      "inputs": [],
      "name": "running",
      "outputs": [
        {
          "name": "",
          "type": "bool"
        }
      ],
      "payable": false,
      "stateMutability": "view",
      "type": "function"
    },
    {
      "inputs": [],
      "payable": false,
      "stateMutability": "nonpayable",
      "type": "constructor"
    },
    {
      "anonymous": false,
      "inputs": [
        {
          "indexed": false,
          "name": "switchStatus",
          "type": "bool"
        }
      ],
      "name": "LogSwitchStatus",
      "type": "event"
    },
    {
      "anonymous": false,
      "inputs": [
        {
          "indexed": false,
          "name": "oldOwner",
          "type": "address"
        },
        {
          "indexed": false,
          "name": "newOwner",
          "type": "address"
        }
      ],
      "name": "LogNewOwner",
      "type": "event"
    },
    {
      "anonymous": false,
      "inputs": [
        {
          "indexed": false,
          "name": "deleteOwner",
          "type": "address"
        }
      ],
      "name": "LogDeleteOwner",
      "type": "event"
    },
    {
      "constant": false,
      "inputs": [
        {
          "name": "_onOff",
          "type": "bool"
        }
      ],
      "name": "controlSwitch",
      "outputs": [],
      "payable": false,
      "stateMutability": "nonpayable",
      "type": "function"
    }
  ],
  "bytecode": "0x6060604052341561000f57600080fd5b336000806101000a81548173ffffffffffffffffffffffffffffffffffffffff021916908373ffffffffffffffffffffffffffffffffffffffff1602179055506001600060146101000a81548160ff02191690831515021790555061052f806100796000396000f30060606040526004361061006d576000357c0100000000000000000000000000000000000000000000000000000000900463ffffffff1680631b2093d1146100725780638da5cb5b14610097578063a6f9dae1146100ec578063cd5c4c7014610125578063d85bd5261461015e575b600080fd5b341561007d57600080fd5b6100956004808035151590602001909190505061018b565b005b34156100a257600080fd5b6100aa61024d565b604051808273ffffffffffffffffffffffffffffffffffffffff1673ffffffffffffffffffffffffffffffffffffffff16815260200191505060405180910390f35b34156100f757600080fd5b610123600480803573ffffffffffffffffffffffffffffffffffffffff16906020019091905050610272565b005b341561013057600080fd5b61015c600480803573ffffffffffffffffffffffffffffffffffffffff169060200190919050506103ee565b005b341561016957600080fd5b6101716104f0565b604051808215151515815260200191505060405180910390f35b3373ffffffffffffffffffffffffffffffffffffffff166000809054906101000a900473ffffffffffffffffffffffffffffffffffffffff1673ffffffffffffffffffffffffffffffffffffffff161415156101e657600080fd5b80600060146101000a81548160ff0219169083151502179055507febc7dab65fbc6c64ef4127ee30fe3644ecfa7f2fad7cfd9d376324f462314354600060149054906101000a900460ff16604051808215151515815260200191505060405180910390a150565b6000809054906101000a900473ffffffffffffffffffffffffffffffffffffffff1681565b3373ffffffffffffffffffffffffffffffffffffffff166000809054906101000a900473ffffffffffffffffffffffffffffffffffffffff1673ffffffffffffffffffffffffffffffffffffffff161415156102cd57600080fd5b60008173ffffffffffffffffffffffffffffffffffffffff16141515156102f357600080fd5b7f1f8d7d25344642d919d55999e4664aa452a5f424bc0936ceb9c2b300db7dcbd96000809054906101000a900473ffffffffffffffffffffffffffffffffffffffff1682604051808373ffffffffffffffffffffffffffffffffffffffff1673ffffffffffffffffffffffffffffffffffffffff1681526020018273ffffffffffffffffffffffffffffffffffffffff1673ffffffffffffffffffffffffffffffffffffffff1681526020019250505060405180910390a1806000806101000a81548173ffffffffffffffffffffffffffffffffffffffff021916908373ffffffffffffffffffffffffffffffffffffffff16021790555050565b3373ffffffffffffffffffffffffffffffffffffffff166000809054906101000a900473ffffffffffffffffffffffffffffffffffffffff1673ffffffffffffffffffffffffffffffffffffffff1614151561044957600080fd5b7fa5828ad497e16d29d45c7b08a089f0be4b9eb49a783a175728b68d9838f8d78381604051808273ffffffffffffffffffffffffffffffffffffffff1673ffffffffffffffffffffffffffffffffffffffff16815260200191505060405180910390a160008060006101000a81548173ffffffffffffffffffffffffffffffffffffffff021916908373ffffffffffffffffffffffffffffffffffffffff16021790555050565b600060149054906101000a900460ff16815600a165627a7a72305820442af034ab369dfdc4b5ee676014e86fd39d452d85aaff28d541ad4d4b83c12d0029",
  "source": "pragma solidity ^0.4.20;\n\nimport \"./Owned.sol\";\n\n/**\n *Base for contracts that can stopped/resumed.\n */\n\n contract Stoppable is Owned {\n\n    event LogSwitchStatus(bool switchStatus);\n\n    bool public running;\n\n    function Stoppable() public {\n        running = true;\n    }\n\n    modifier onlyIfRunning {\n        require(running);\n        _;\n    }\n\n    function controlSwitch(bool _onOff) public onlyOwner {\n        running = _onOff;\n\n        emit LogSwitchStatus(running);\n    }\n\n }\n",
  "sourcePath": "/Users/sangphilkim/Smart/Pedomu/contracts/Stoppable.sol",
  "compiler": {
    "name": "solc",
    "version": "0.4.21+commit.dfe3193c.Emscripten.clang"
  },
  "schemaVersion": "2.0.0",
  "updatedAt": "2018-04-20T07:45:10.608Z"
}